:100DAC00120DD1120DF18B228A2389247D407C00F7
:100DBC00120BEA120CCC8B228A2389247D407C00F6
:050DCC00120BEA80DEBD
:100D5B005468697320697320612074657374206F04
:100D6B0066206120737472696E6720696E20636FF1
:0A0D7B006465206D656D6F727900EC
:070DF1007BFF7A0D795B2204
:100CCC00E4FEEE900D5B93FF74002EF582E434008D
:100CDC00F583EFF00EBE1EEA90001E7478F0A3743C
:100CEC0064F0A37461F0A37474F0A37461F07E22B9
:100CFC00EE900D5B93FF74012EF582E43400F583C6
:0C0D0C00EFF00EBE29EA7B017A007900AE
:010D180022B8
:100D19002570200025322E32625820004164647209
:100D29002E20203020203120203220203320203452
:100D39002020352020362020372020382020392037
:100D490020412020422020432020442020452020EB
:020D5900460052
:060C5D008B2C8A2D892E6C
:100C63008B348A3589367BFF7A0D7919120862E451
:100C7300F52FAB2CAA2DA92E852F82758300120B7D
:100C83005CF5307BFF7A0D791DF534120862052F70
:100C9300E52FC3941040DBE4F52FAB2CAA2DA92E2E
:100CA300852F82758300120B5CF530C394204007B7
:100CB300E530D3947E400375302EAF30120D850599
:080CC3002FE52FC3941040D26D
:010CCB002206
:0A0BEA008B258A2689278C288D2987
:100BF4007BFF7A0D79251208627F0D120D857F0A1D
:100C0400120D8585262A85272B532B0F752A00C3A1
:100C1400E4952BFFE4952AFEEF2527F527EE3526EC
:100C2400F526E4F52AF52BC3E52B9529E52A952825
:100C34005026AB25E527252BF9E526352AFA120C93
:100C44005D7410252BF52BE4352AF52A7F0D120D42
:080C5400857F0A120D8580CF97
:010C5C002275
:100DD10053873F759850E4F59B759AEE759B1EC23B
:040DE100ACD29922D5
:03000000020DE509
:0C0DE500787FE4F6D8FD758144020DAC67
:100B5C00BB010CE58229F582E5833AF583E022504E
:100B6C0006E92582F8E622BBFE06E92582F8E22298
:0D0B7C00E58229F582E5833AF583E49322B2
:100D8500EFB40A07740D120D90740A309811A899E2
:100D9500B8130CC2983098FDA899C298B811F630CE
:070DA50099FDC299F59922A6
:10080000E5402434F8E60540227831300702783498
:10081000E475F001120BB4020B892000EB7F2ED29D
:10082000008018EF540F2490D43440D4FF30040BD0
:10083000EF24BFB41A0050032461FFE541600215A4
:10084000410544E5447002054330070D7831E475F5
:10085000F001120BB4EF020BA2020D857403D20754
:100860008003E4C207F5408B318A328933E4F541D5
:10087000F543F544E54160077F2012083B80F5759C
:1008800042FFC201C200C202C203C205C206C208C0
:10089000120809FF700D3007057F0012084CAF44A5
:1008A000AE4322B4255FC2D5C204120809FF24D08A
:1008B000B40A00501A75F00A784130D50508B6FF21
:1008C0000106C6A426F620D5047002D20380D924DE
:1008D000CFB41A00EF5004C2E5D204020A4CD20190
:1008E00080C6D20080C0D20280BCD2D580BAD205E8
:1008F00080B47F2012083B2002077401B5410040FC
:10090000F1120800FF12083B020874D208D20680D8
:1009100095120800FB120800FA120800F94A4B7001
:1009200006791D7A0B7BFF20022EE541602A7E00AE
:100930008E82758300120B5C60060EEE654270F0CD
:10094000C2D5EBC0E0EAC0E0E9C0E0EE120A93D005
:10095000E0F9D0E0FAD0E0FB120B89FF60AAEBC00F
:10096000E0EAC0E0E9C0E012083BD0E02401F9D0A1
:10097000E03400FAD0E0FBE5420460DCD542D980E7
:10098000877BFF7A0A798FD202809C791080027966
:1009900008C206C2088008D2D5790A8004790AC242
:1009A000D5E542047002F542E4FAFDFEFF120800AC
:1009B000FC7B08200113120800FD7B1030000A1296
:1009C0000800FE120800FF7B20EC3382D592D55040
:1009D00013C3E43000069FFFE49EFEE42001039D64
:1009E000FDE49CFCE4CBF8C201EC700CCFCECDCC86
:1009F000E824F8F870F38017C3EF33FFEE33FEED11
:100A000033FDEC33FCEB33FB994002FB0FD8E9EBF1
:100A1000300105F8D0E0C448B201C0E00AEC4D4E08
:100A20004F78207B0070C2EAB5420040BCC0E012A3
:100A30000A95D0F0D0E0200104C4C0E0C4B201C0E7
:100A4000F0120824D0F0D5F0EB020874120BC409A0
:100A50001153098B5808E24C08DE42098F4F099761
:0F0A60004409974908F743099D550981460981C3
:100A6F00450981470B3D5008E62D08EA2E090D2B4D
:100A7F0008EE23090B200B262A08A64800000905BB
:100A8F003F3F3F00790AA2D5200314300509B91062
:100A9F00020404B9080104A2D52006025001042063
:100AAF0002689202B541005034C0E07F2030031934
:100ABF007F30A20272067205500F120AECC202C2F8
:100ACF0006C205C2087F30800F300503E9C0E0126F
:100ADF00083B300503D0E0F9D0E0B541CC30051725
:100AEF007F30B9100C12083B7F583004077F788095
:100AFF0003B9080312083B3002057F2D02083B7F24
:100B0F00202008F87F2B2006F322920280CF286E38
:100B1F00756C6C2900D2011208003001F8C20178FF
:100B2F004130D50108F60208A62D50434958120846
:100B3F00002403B405004001E4900B389312082CF5
:0D0B4F00743A12082CD20375410402098B80
:100B8900BB010689828A83E0225002E722BBFE026A
:090B9900E32289828A83E493229D
:100BA200BB010689828A83F0225002F722BBFE0132
:020BB200F3222C
:100BB400FAE6FB0808E6F925F0F618E6CA3AF62242
:100BC400D083D082F8E4937012740193700DA3A3C0
:100BD40093F8740193F5828883E4737402936860D4
:060BE400EFA3A3A380DFD4
:00000001FF
