:080800008F0B8E0A8D098C0894
:100808005389F0438901C2A9E4F50FF50EF50DF5FA
:100818000CAF0BAE0AAD09AC08AB0FAA0EA90DA818
:100828000CC31208E05026758CFC758A79C28DD2EB
:100838008C308DFDC28CE50F2401F50FE4350EF5E3
:0D0848000EE4350DF50DE4350CF50C80C403
:010855002280
:0C091500C2B6D2B78F80C2B77580FF2237
:0C092100D2B6D2B78F80C2B77580FF221B
:100856007F381209157F057E007D007C0012080096
:100866007F381209157F057E007D007C0012080086
:100876007F011209157F057E007D007C00120800AD
:0F0886007F041209150F7E007D007C0002080020
:060895008B108A1189128C
:10089B008B138A148915AB13AA14A9151208C760F8
:1008AB001AAB10AA11A9121208C7FF120921740161
:0B08BB002515F515E43514F51480DB5D
:0108C600220F
:1008F100120856C2A47FF47E017D007C001208001C
:10090100D2A47FF47E017D007C001208007F411299
:04091100092180DF59
:0300000002092DC5
:0C092D00787FE4F6D8FD7581150208F112
:1008C700BB010689828A83E0225002E722BBFE022F
:0908D700E32289828A83E4932262
:1008E000EB9FF5F0EA9E42F0E99D42F0E89C45F06E
:0108F00022E5
:00000001FF
