:080800008F0B8E0A8D098C0894
:100808005389F0438901C2A9E4F50FF50EF50DF5FA
:100818000CAF0BAE0AAD09AC08AB0FAA0EA90DA818
:100828000CC31208E05026758CFC758A79C28DD2EB
:100838008C308DFDC28CE50F2401F50FE4350EF5E3
:0D0848000EE4350DF50DE4350CF50C80C403
:010855002280
:0C08F100C2B6D2B78F80C2B77580FF225C
:0C08FD00D2B6D2B78F80C2B77580FF2240
:100856007F381208F17F057E007D007C00120800BB
:100866007F381208F17F057E007D007C00120800AB
:100876007F011208F17F057E007D007C00120800D2
:0F0886007F041208F10F7E007D007C0002080045
:060895008B108A1189128C
:10089B008B138A148915AB13AA14A9151208C760F8
:1008AB001AAB10AA11A9121208C7FF1208FD740186
:0B08BB002515F515E43514F51480DB5D
:0108C600220F
:06091500C2A6C2A780FA91
:03000000020909E9
:0C090900787FE4F6D8FD75811502091511
:1008C700BB010689828A83E0225002E722BBFE022F
:0908D700E32289828A83E4932262
:1008E000EB9FF5F0EA9E42F0E99D42F0E89C45F06E
:0108F00022E5
:00000001FF
