:0808EA008F118E108D0F8C0E92
:1008F2005389F0438901C2A9E4F515F514F513F5FE
:1009020012AF11AE10AD0FAC0EAB15AA14A913A8FD
:1009120012C31209CA5026758CFC758A79C28DD20F
:100922008C308DFDC28CE5152401F515E43514F5E6
:0D09320014E43513F513E43512F51280C4FA
:01093F002295
:0C09DB00C2B6D2B78F80C2B77580FF2271
:0C09E700D2B6D2B78F80C2B77580FF2255
:100940007F381209DB7F057E007D007C001208EAFB
:100950007F381209DB7F057E007D007C001208EAEB
:100960007F011209DB7F057E007D007C001208EA12
:0F0970007F041209DB0F7E007D007C000208EA85
:06097F008B168A1789188F
:100985008B198A1A891BAB19AA1AA91B1209B160FE
:100995001AAB16AA17A9181209B1FF1209E77401B3
:0B09A500251BF51BE4351AF51A80DB5A
:0109B0002224
:0509F30012088C80FBDE
:0409FC008040201007
:0309F800011C04DB
:10088C00E4F508750CE8750B03F50AF509750D010F
:10089C00E50DB40120E508B51C03E4F508E5089066
:1008AC0009FC93F4F5A00508AF0CAE0BAD0AAC092E
:1008BC001208EA80DBE50D6024E508C394005005BE
:1008CC00E51C14F508E5089009FC93F4F5A015084F
:0D08DC00AF0CAE0BAD0AAC091208EA80D8D3
:0108E90022EC
:03000000020800F3
:0C080000787FE4F6D8FD75811C020847E3
:1009B100BB010689828A83E0225002E722BBFE0244
:0909C100E32289828A83E4932277
:1009CA00EB9FF5F0EA9E42F0E99D42F0E89C45F083
:0109DA0022FA
:10080C000209F3E493A3F8E493A34003F68001F206
:10081C0008DFF48029E493A3F85407240CC8C333ED
:10082C00C4540F4420C8834004F456800146F6DFBC
:10083C00E4800B01020408102040809009F8E47E4B
:10084C00019360BCA3FF543F30E509541FFEE493B1
:10085C00A360010ECF54C025E060A840B8E493A378
:10086C00FAE493A3F8E493A3C8C582C8CAC583CAA3
:10087C00F0A3C8C582C8CAC583CADFE9DEE780BE5B
:0109FB0000FB
:00000001FF
